{
  "contractName": "Voting",
  "abi": [
    {
      "inputs": [],
      "stateMutability": "nonpayable",
      "type": "constructor"
    },
    {
      "inputs": [
        {
          "internalType": "uint256",
          "name": "",
          "type": "uint256"
        }
      ],
      "name": "candidates",
      "outputs": [
        {
          "internalType": "uint256",
          "name": "id",
          "type": "uint256"
        },
        {
          "internalType": "string",
          "name": "name",
          "type": "string"
        },
        {
          "internalType": "uint256",
          "name": "voteCount",
          "type": "uint256"
        }
      ],
      "stateMutability": "view",
      "type": "function",
      "constant": true
    },
    {
      "inputs": [],
      "name": "candidatesCount",
      "outputs": [
        {
          "internalType": "uint256",
          "name": "",
          "type": "uint256"
        }
      ],
      "stateMutability": "view",
      "type": "function",
      "constant": true
    },
    {
      "inputs": [
        {
          "internalType": "address",
          "name": "",
          "type": "address"
        }
      ],
      "name": "hasVoted",
      "outputs": [
        {
          "internalType": "bool",
          "name": "",
          "type": "bool"
        }
      ],
      "stateMutability": "view",
      "type": "function",
      "constant": true
    },
    {
      "inputs": [
        {
          "internalType": "uint256",
          "name": "_candidateId",
          "type": "uint256"
        }
      ],
      "name": "vote",
      "outputs": [],
      "stateMutability": "nonpayable",
      "type": "function"
    }
  ],
  "bytecode": "0x608060405234801561001057600080fd5b5060408051808201909152600b81526a43616e646964617465203160a81b602082015261003c9061006c565b60408051808201909152600b81526a21b0b73234b230ba32901960a91b60208201526100679061006c565b61025b565b6002805490600061007c836100d6565b9091555050604080516060810182526002548082526020808301858152600084860181905292835260019182905293909120825181559251919291908201906100c5908261019c565b506040820151816002015590505050565b6000600182016100f657634e487b7160e01b600052601160045260246000fd5b5060010190565b634e487b7160e01b600052604160045260246000fd5b600181811c9082168061012757607f821691505b60208210810361014757634e487b7160e01b600052602260045260246000fd5b50919050565b601f82111561019757600081815260208120601f850160051c810160208610156101745750805b601f850160051c820191505b8181101561019357828155600101610180565b5050505b505050565b81516001600160401b038111156101b5576101b56100fd565b6101c9816101c38454610113565b8461014d565b602080601f8311600181146101fe57600084156101e65750858301515b600019600386901b1c1916600185901b178555610193565b600085815260208120601f198616915b8281101561022d5788860151825594840194600190910190840161020e565b508582101561024b5787850151600019600388901b60f8161c191681555b5050505050600190811b01905550565b6103b88061026a6000396000f3fe608060405234801561001057600080fd5b506004361061004c5760003560e01c80630121b93f1461005157806309eef43e146100665780632d35a8a21461009e5780633477ee2e146100b5575b600080fd5b61006461005f36600461027b565b6100d7565b005b610089610074366004610294565b60006020819052908152604090205460ff1681565b60405190151581526020015b60405180910390f35b6100a760025481565b604051908152602001610095565b6100c86100c336600461027b565b6101d1565b604051610095939291906102c4565b3360009081526020819052604090205460ff161561013c5760405162461bcd60e51b815260206004820152601760248201527f596f75206861766520616c726561647920766f7465642e00000000000000000060448201526064015b60405180910390fd5b60008111801561014e57506002548111155b6101925760405162461bcd60e51b815260206004820152601560248201527424b73b30b634b21031b0b73234b230ba329024a21760591b6044820152606401610133565b60008181526001602052604081206002018054916101af83610321565b9091555050336000908152602081905260409020805460ff1916600117905550565b6001602081905260009182526040909120805491810180546101f290610348565b80601f016020809104026020016040519081016040528092919081815260200182805461021e90610348565b801561026b5780601f106102405761010080835404028352916020019161026b565b820191906000526020600020905b81548152906001019060200180831161024e57829003601f168201915b5050505050908060020154905083565b60006020828403121561028d57600080fd5b5035919050565b6000602082840312156102a657600080fd5b81356001600160a01b03811681146102bd57600080fd5b9392505050565b83815260006020606081840152845180606085015260005b818110156102f8578681018301518582016080015282016102dc565b506000608082860101526080601f19601f83011685010192505050826040830152949350505050565b60006001820161034157634e487b7160e01b600052601160045260246000fd5b5060010190565b600181811c9082168061035c57607f821691505b60208210810361037c57634e487b7160e01b600052602260045260246000fd5b5091905056fea2646970667358221220504c0c86f656bdc7502571e59f357880ded33521f256566bf4a990279ef11e7e64736f6c63430008150033",
  "immutableReferences": {},
  "source": "// SPDX-License-Identifier: MIT\r\npragma solidity ^0.8.0;\r\n\r\ncontract Voting {\r\n    struct Candidate {\r\n        uint id;\r\n        string name;\r\n        uint voteCount;\r\n    }\r\n\r\n    // Mapping to keep track of whether an account has voted\r\n    mapping(address => bool) public hasVoted;\r\n    mapping(uint => Candidate) public candidates;\r\n    uint public candidatesCount;\r\n\r\n    constructor() {\r\n        addCandidate(\"Candidate 1\");\r\n        addCandidate(\"Candidate 2\");\r\n    }\r\n\r\n    function addCandidate(string memory _name) private {\r\n        candidatesCount++;\r\n        candidates[candidatesCount] = Candidate(candidatesCount, _name, 0);\r\n    }\r\n\r\n    function vote(uint _candidateId) public {\r\n        require(!hasVoted[msg.sender], \"You have already voted.\");\r\n        require(_candidateId > 0 && _candidateId <= candidatesCount, \"Invalid candidate ID.\");\r\n\r\n        candidates[_candidateId].voteCount++;\r\n        hasVoted[msg.sender] = true;\r\n    }\r\n}\r\n",
  "sourcePath": "D:\\Projects\\BlockChain\\Digital-Voting\\contracts\\Voting.sol",
  "compiler": {
    "name": "solc",
    "version": "0.8.21+commit.d9974bed.Emscripten.clang"
  },
  "schemaVersion": "3.4.16",
  "updatedAt": "2024-10-12T13:18:58.487Z",
  "networkType": "ethereum",
  "devdoc": {
    "kind": "dev",
    "methods": {},
    "version": 1
  },
  "userdoc": {
    "kind": "user",
    "methods": {},
    "version": 1
  }
}