{
  "contractName": "Voting",
  "abi": [
    {
      "inputs": [
        {
          "internalType": "string[]",
          "name": "candidateNames",
          "type": "string[]"
        }
      ],
      "stateMutability": "nonpayable",
      "type": "constructor"
    },
    {
      "anonymous": false,
      "inputs": [
        {
          "indexed": false,
          "internalType": "address",
          "name": "voter",
          "type": "address"
        },
        {
          "indexed": false,
          "internalType": "string",
          "name": "candidate",
          "type": "string"
        }
      ],
      "name": "VoteCasted",
      "type": "event"
    },
    {
      "inputs": [
        {
          "internalType": "uint256",
          "name": "",
          "type": "uint256"
        }
      ],
      "name": "candidates",
      "outputs": [
        {
          "internalType": "string",
          "name": "name",
          "type": "string"
        },
        {
          "internalType": "uint256",
          "name": "voteCount",
          "type": "uint256"
        }
      ],
      "stateMutability": "view",
      "type": "function",
      "constant": true
    },
    {
      "inputs": [],
      "name": "owner",
      "outputs": [
        {
          "internalType": "address",
          "name": "",
          "type": "address"
        }
      ],
      "stateMutability": "view",
      "type": "function",
      "constant": true
    },
    {
      "inputs": [
        {
          "internalType": "address",
          "name": "",
          "type": "address"
        }
      ],
      "name": "voters",
      "outputs": [
        {
          "internalType": "bool",
          "name": "",
          "type": "bool"
        }
      ],
      "stateMutability": "view",
      "type": "function",
      "constant": true
    },
    {
      "inputs": [
        {
          "internalType": "uint256",
          "name": "candidateId",
          "type": "uint256"
        }
      ],
      "name": "vote",
      "outputs": [],
      "stateMutability": "nonpayable",
      "type": "function"
    },
    {
      "inputs": [],
      "name": "getNumberOfCandidates",
      "outputs": [
        {
          "internalType": "uint256",
          "name": "",
          "type": "uint256"
        }
      ],
      "stateMutability": "view",
      "type": "function",
      "constant": true
    },
    {
      "inputs": [
        {
          "internalType": "uint256",
          "name": "index",
          "type": "uint256"
        }
      ],
      "name": "getCandidate",
      "outputs": [
        {
          "internalType": "string",
          "name": "name",
          "type": "string"
        },
        {
          "internalType": "uint256",
          "name": "voteCount",
          "type": "uint256"
        }
      ],
      "stateMutability": "view",
      "type": "function",
      "constant": true
    },
    {
      "inputs": [],
      "name": "getAllCandidates",
      "outputs": [
        {
          "internalType": "string[]",
          "name": "",
          "type": "string[]"
        }
      ],
      "stateMutability": "view",
      "type": "function",
      "constant": true
    }
  ],
  "bytecode": "0x60806040523480156200001157600080fd5b5060405162000bc338038062000bc3833981016040819052620000349162000179565b60008151116200008a5760405162461bcd60e51b815260206004820152601e60248201527f43616e646964617465206e616d657320617272617920697320656d7074790000604482015260640160405180910390fd5b600280546001600160a01b0319163317905560005b8151811015620001285760006040518060400160405280848481518110620000cb57620000cb620002bd565b6020908102919091018101518252600091810182905283546001810185559382529020815191926002020190819062000105908262000362565b5060208201518160010155505080806200011f906200042e565b9150506200009f565b505062000456565b634e487b7160e01b600052604160045260246000fd5b604051601f8201601f191681016001600160401b038111828210171562000171576200017162000130565b604052919050565b600060208083850312156200018d57600080fd5b82516001600160401b0380821115620001a557600080fd5b8185019150601f8681840112620001bb57600080fd5b825182811115620001d057620001d062000130565b8060051b620001e186820162000146565b918252848101860191868101908a841115620001fc57600080fd5b87870192505b83831015620002af578251868111156200021c5760008081fd5b8701603f81018c136200022f5760008081fd5b888101518781111562000246576200024662000130565b62000259818801601f19168b0162000146565b81815260408e81848601011115620002715760008081fd5b60005b8381101562000291578481018201518382018e01528c0162000274565b505060009181018b0191909152835250918701919087019062000202565b9a9950505050505050505050565b634e487b7160e01b600052603260045260246000fd5b600181811c90821680620002e857607f821691505b6020821081036200030957634e487b7160e01b600052602260045260246000fd5b50919050565b601f8211156200035d57600081815260208120601f850160051c81016020861015620003385750805b601f850160051c820191505b81811015620003595782815560010162000344565b5050505b505050565b81516001600160401b038111156200037e576200037e62000130565b62000396816200038f8454620002d3565b846200030f565b602080601f831160018114620003ce5760008415620003b55750858301515b600019600386901b1c1916600185901b17855562000359565b600085815260208120601f198616915b82811015620003ff57888601518255948401946001909101908401620003de565b50858210156200041e5787850151600019600388901b60f8161c191681555b5050505050600190811b01905550565b6000600182016200044f57634e487b7160e01b600052601160045260246000fd5b5060010190565b61075d80620004666000396000f3fe608060405234801561001057600080fd5b506004361061007d5760003560e01c806335b8e8201161005b57806335b8e820146100d65780637a84d13e146100e95780638da5cb5b146100fa578063a3ec138d1461012557600080fd5b80630121b93f146100825780632e6997fe146100975780633477ee2e146100b5575b600080fd5b61009561009036600461058d565b610158565b005b61009f610257565b6040516100ac91906105ec565b60405180910390f35b6100c86100c336600461058d565b61039d565b6040516100ac92919061064e565b6100c86100e436600461058d565b610459565b6000546040519081526020016100ac565b60025461010d906001600160a01b031681565b6040516001600160a01b0390911681526020016100ac565b610148610133366004610670565b60016020526000908152604090205460ff1681565b60405190151581526020016100ac565b3360009081526001602052604090205460ff16156101bd5760405162461bcd60e51b815260206004820152601760248201527f596f75206861766520616c726561647920766f7465642e00000000000000000060448201526064015b60405180910390fd5b60005481106102035760405162461bcd60e51b815260206004820152601260248201527124b73b30b634b21031b0b73234b230ba329760711b60448201526064016101b4565b3360009081526001602081905260408220805460ff19169091179055805482908110610231576102316106a0565b60009182526020822060016002909202010180549161024f836106b6565b919050555050565b600080546060919067ffffffffffffffff811115610277576102776106dd565b6040519080825280602002602001820160405280156102aa57816020015b60608152602001906001900390816102955790505b50905060005b60005481101561039757600081815481106102cd576102cd6106a0565b906000526020600020906002020160000180546102e9906106f3565b80601f0160208091040260200160405190810160405280929190818152602001828054610315906106f3565b80156103625780601f1061033757610100808354040283529160200191610362565b820191906000526020600020905b81548152906001019060200180831161034557829003601f168201915b5050505050828281518110610379576103796106a0565b6020026020010181905250808061038f906106b6565b9150506102b0565b50919050565b600081815481106103ad57600080fd5b90600052602060002090600202016000915090508060000180546103d0906106f3565b80601f01602080910402602001604051908101604052809291908181526020018280546103fc906106f3565b80156104495780601f1061041e57610100808354040283529160200191610449565b820191906000526020600020905b81548152906001019060200180831161042c57829003601f168201915b5050505050908060010154905082565b600080546060919083106104af5760405162461bcd60e51b815260206004820152601760248201527f496e76616c69642063616e64696461746520696e64657800000000000000000060448201526064016101b4565b600083815481106104c2576104c26106a0565b9060005260206000209060020201600001600084815481106104e6576104e66106a0565b906000526020600020906002020160010154818054610504906106f3565b80601f0160208091040260200160405190810160405280929190818152602001828054610530906106f3565b801561057d5780601f106105525761010080835404028352916020019161057d565b820191906000526020600020905b81548152906001019060200180831161056057829003601f168201915b5050505050915091509150915091565b60006020828403121561059f57600080fd5b5035919050565b6000815180845260005b818110156105cc576020818501810151868301820152016105b0565b506000602082860101526020601f19601f83011685010191505092915050565b6000602080830181845280855180835260408601915060408160051b870101925083870160005b8281101561064157603f1988860301845261062f8583516105a6565b94509285019290850190600101610613565b5092979650505050505050565b60408152600061066160408301856105a6565b90508260208301529392505050565b60006020828403121561068257600080fd5b81356001600160a01b038116811461069957600080fd5b9392505050565b634e487b7160e01b600052603260045260246000fd5b6000600182016106d657634e487b7160e01b600052601160045260246000fd5b5060010190565b634e487b7160e01b600052604160045260246000fd5b600181811c9082168061070757607f821691505b60208210810361039757634e487b7160e01b600052602260045260246000fdfea2646970667358221220ed44b696bf014ab0f5cc720f77ad296d45ea0601471459036e468d32959692b264736f6c63430008150033",
  "immutableReferences": {},
  "source": "// SPDX-License-Identifier: MIT\r\npragma solidity ^0.8.0;\r\n\r\ncontract Voting {\r\n    // Candidate structure\r\n    struct Candidate {\r\n        string name;\r\n        uint voteCount;\r\n    }\r\n\r\n    // Store the candidates\r\n    Candidate[] public candidates;\r\n\r\n    // Track who has voted\r\n    mapping(address => bool) public voters;\r\n\r\n    // Address of the owner (who deployed the contract)\r\n    address public owner;\r\n\r\n    // Event to notify when a vote is cast\r\n    event VoteCasted(address voter, string candidate);\r\n\r\n    // Modifier to restrict some functions to the owner\r\n    modifier onlyOwner() {\r\n        require(msg.sender == owner, \"Only the owner can call this function\");\r\n        _;\r\n    }\r\n\r\n    constructor(string[] memory candidateNames) {\r\n    require(candidateNames.length > 0, \"Candidate names array is empty\");\r\n    owner = msg.sender;\r\n    for (uint i = 0; i < candidateNames.length; i++) {\r\n        candidates.push(Candidate({\r\n            name: candidateNames[i],\r\n            voteCount: 0\r\n        }));\r\n    }\r\n}\r\n\r\n\r\n    // Function to cast a vote for a candidate\r\n    function vote(uint candidateId) public {\r\n    require(!voters[msg.sender], \"You have already voted.\");  // Ensure the user hasn't already voted\r\n    require(candidateId >= 0 && candidateId < candidates.length, \"Invalid candidate.\");  // Ensure valid candidate ID\r\n\r\n    voters[msg.sender] = true;  // Record the vote\r\n    candidates[candidateId].voteCount++;\r\n}\r\n\r\n\r\n    // Function to get the number of candidates\r\n    function getNumberOfCandidates() public view returns (uint) {\r\n        return candidates.length;\r\n    }\r\n\r\n    // Function to get candidate details by index\r\n    function getCandidate(uint index) public view returns (string memory name, uint voteCount) {\r\n        require(index < candidates.length, \"Invalid candidate index\");\r\n        return (candidates[index].name, candidates[index].voteCount);\r\n    }\r\n\r\n    // Function to get all candidate names (for the frontend)\r\n    function getAllCandidates() public view returns (string[] memory) {\r\n        string[] memory candidateNames = new string[](candidates.length);\r\n        for (uint i = 0; i < candidates.length; i++) {\r\n            candidateNames[i] = candidates[i].name;\r\n        }\r\n        return candidateNames;\r\n    }\r\n}\r\n",
  "sourcePath": "D:\\Projects\\BlockChain\\Digital-Voting\\contracts\\Voting.sol",
  "compiler": {
    "name": "solc",
    "version": "0.8.21+commit.d9974bed.Emscripten.clang"
  },
  "schemaVersion": "3.4.16",
  "updatedAt": "2024-10-11T06:02:35.805Z",
  "networkType": "ethereum",
  "devdoc": {
    "kind": "dev",
    "methods": {},
    "version": 1
  },
  "userdoc": {
    "kind": "user",
    "methods": {},
    "version": 1
  }
}