{
  "contractName": "Voting",
  "abi": [
    {
      "inputs": [
        {
          "internalType": "string[]",
          "name": "candidateNames",
          "type": "string[]"
        }
      ],
      "stateMutability": "nonpayable",
      "type": "constructor"
    },
    {
      "anonymous": false,
      "inputs": [
        {
          "indexed": false,
          "internalType": "address",
          "name": "voter",
          "type": "address"
        },
        {
          "indexed": false,
          "internalType": "string",
          "name": "candidate",
          "type": "string"
        }
      ],
      "name": "VoteCasted",
      "type": "event"
    },
    {
      "inputs": [
        {
          "internalType": "uint256",
          "name": "",
          "type": "uint256"
        }
      ],
      "name": "candidates",
      "outputs": [
        {
          "internalType": "string",
          "name": "name",
          "type": "string"
        },
        {
          "internalType": "uint256",
          "name": "voteCount",
          "type": "uint256"
        }
      ],
      "stateMutability": "view",
      "type": "function",
      "constant": true
    },
    {
      "inputs": [],
      "name": "owner",
      "outputs": [
        {
          "internalType": "address",
          "name": "",
          "type": "address"
        }
      ],
      "stateMutability": "view",
      "type": "function",
      "constant": true
    },
    {
      "inputs": [
        {
          "internalType": "address",
          "name": "",
          "type": "address"
        }
      ],
      "name": "voters",
      "outputs": [
        {
          "internalType": "bool",
          "name": "",
          "type": "bool"
        }
      ],
      "stateMutability": "view",
      "type": "function",
      "constant": true
    },
    {
      "inputs": [
        {
          "internalType": "uint256",
          "name": "candidateIndex",
          "type": "uint256"
        }
      ],
      "name": "vote",
      "outputs": [],
      "stateMutability": "nonpayable",
      "type": "function"
    },
    {
      "inputs": [],
      "name": "getNumberOfCandidates",
      "outputs": [
        {
          "internalType": "uint256",
          "name": "",
          "type": "uint256"
        }
      ],
      "stateMutability": "view",
      "type": "function",
      "constant": true
    },
    {
      "inputs": [
        {
          "internalType": "uint256",
          "name": "index",
          "type": "uint256"
        }
      ],
      "name": "getCandidate",
      "outputs": [
        {
          "internalType": "string",
          "name": "name",
          "type": "string"
        },
        {
          "internalType": "uint256",
          "name": "voteCount",
          "type": "uint256"
        }
      ],
      "stateMutability": "view",
      "type": "function",
      "constant": true
    },
    {
      "inputs": [],
      "name": "getAllCandidates",
      "outputs": [
        {
          "internalType": "string[]",
          "name": "",
          "type": "string[]"
        }
      ],
      "stateMutability": "view",
      "type": "function",
      "constant": true
    }
  ],
  "bytecode": "0x60806040523480156200001157600080fd5b5060405162000cfb38038062000cfb833981016040819052620000349162000179565b60008151116200008a5760405162461bcd60e51b815260206004820152601e60248201527f43616e646964617465206e616d657320617272617920697320656d7074790000604482015260640160405180910390fd5b600280546001600160a01b0319163317905560005b8151811015620001285760006040518060400160405280848481518110620000cb57620000cb620002bd565b6020908102919091018101518252600091810182905283546001810185559382529020815191926002020190819062000105908262000362565b5060208201518160010155505080806200011f906200042e565b9150506200009f565b505062000456565b634e487b7160e01b600052604160045260246000fd5b604051601f8201601f191681016001600160401b038111828210171562000171576200017162000130565b604052919050565b600060208083850312156200018d57600080fd5b82516001600160401b0380821115620001a557600080fd5b8185019150601f8681840112620001bb57600080fd5b825182811115620001d057620001d062000130565b8060051b620001e186820162000146565b918252848101860191868101908a841115620001fc57600080fd5b87870192505b83831015620002af578251868111156200021c5760008081fd5b8701603f81018c136200022f5760008081fd5b888101518781111562000246576200024662000130565b62000259818801601f19168b0162000146565b81815260408e81848601011115620002715760008081fd5b60005b8381101562000291578481018201518382018e01528c0162000274565b505060009181018b0191909152835250918701919087019062000202565b9a9950505050505050505050565b634e487b7160e01b600052603260045260246000fd5b600181811c90821680620002e857607f821691505b6020821081036200030957634e487b7160e01b600052602260045260246000fd5b50919050565b601f8211156200035d57600081815260208120601f850160051c81016020861015620003385750805b601f850160051c820191505b81811015620003595782815560010162000344565b5050505b505050565b81516001600160401b038111156200037e576200037e62000130565b62000396816200038f8454620002d3565b846200030f565b602080601f831160018114620003ce5760008415620003b55750858301515b600019600386901b1c1916600185901b17855562000359565b600085815260208120601f198616915b82811015620003ff57888601518255948401946001909101908401620003de565b50858210156200041e5787850151600019600388901b60f8161c191681555b5050505050600190811b01905550565b6000600182016200044f57634e487b7160e01b600052601160045260246000fd5b5060010190565b61089580620004666000396000f3fe608060405234801561001057600080fd5b506004361061007d5760003560e01c806335b8e8201161005b57806335b8e820146100d65780637a84d13e146100e95780638da5cb5b146100fa578063a3ec138d1461012557600080fd5b80630121b93f146100825780632e6997fe146100975780633477ee2e146100b5575b600080fd5b6100956100903660046105e7565b610158565b005b61009f6102b7565b6040516100ac9190610646565b60405180910390f35b6100c86100c33660046105e7565b6103fd565b6040516100ac9291906106a8565b6100c86100e43660046105e7565b6104b9565b6000546040519081526020016100ac565b60025461010d906001600160a01b031681565b6040516001600160a01b0390911681526020016100ac565b6101486101333660046106ca565b60016020526000908152604090205460ff1681565b60405190151581526020016100ac565b3360009081526001602052604090205460ff16156101b65760405162461bcd60e51b8152602060048201526016602482015275165bdd481a185d9948185b1c9958591e481d9bdd195960521b60448201526064015b60405180910390fd5b60005481106102015760405162461bcd60e51b8152602060048201526017602482015276092dcecc2d8d2c840c6c2dcc8d2c8c2e8ca40d2dcc8caf604b1b60448201526064016101ad565b3360009081526001602081905260408220805460ff191682179055815490919083908110610231576102316106fa565b906000526020600020906002020160010160008282546102519190610726565b925050819055507fb7821d50dfbda5ea310faebbeac5217bc1bb0cabe463e76b80e48d11e57df098336000838154811061028d5761028d6106fa565b90600052602060002090600202016000016040516102ac929190610773565b60405180910390a150565b600080546060919067ffffffffffffffff8111156102d7576102d7610830565b60405190808252806020026020018201604052801561030a57816020015b60608152602001906001900390816102f55790505b50905060005b6000548110156103f7576000818154811061032d5761032d6106fa565b906000526020600020906002020160000180546103499061073f565b80601f01602080910402602001604051908101604052809291908181526020018280546103759061073f565b80156103c25780601f10610397576101008083540402835291602001916103c2565b820191906000526020600020905b8154815290600101906020018083116103a557829003601f168201915b50505050508282815181106103d9576103d96106fa565b602002602001018190525080806103ef90610846565b915050610310565b50919050565b6000818154811061040d57600080fd5b90600052602060002090600202016000915090508060000180546104309061073f565b80601f016020809104026020016040519081016040528092919081815260200182805461045c9061073f565b80156104a95780601f1061047e576101008083540402835291602001916104a9565b820191906000526020600020905b81548152906001019060200180831161048c57829003601f168201915b5050505050908060010154905082565b600080546060919083106105095760405162461bcd60e51b8152602060048201526017602482015276092dcecc2d8d2c840c6c2dcc8d2c8c2e8ca40d2dcc8caf604b1b60448201526064016101ad565b6000838154811061051c5761051c6106fa565b906000526020600020906002020160000160008481548110610540576105406106fa565b90600052602060002090600202016001015481805461055e9061073f565b80601f016020809104026020016040519081016040528092919081815260200182805461058a9061073f565b80156105d75780601f106105ac576101008083540402835291602001916105d7565b820191906000526020600020905b8154815290600101906020018083116105ba57829003601f168201915b5050505050915091509150915091565b6000602082840312156105f957600080fd5b5035919050565b6000815180845260005b818110156106265760208185018101518683018201520161060a565b506000602082860101526020601f19601f83011685010191505092915050565b6000602080830181845280855180835260408601915060408160051b870101925083870160005b8281101561069b57603f19888603018452610689858351610600565b9450928501929085019060010161066d565b5092979650505050505050565b6040815260006106bb6040830185610600565b90508260208301529392505050565b6000602082840312156106dc57600080fd5b81356001600160a01b03811681146106f357600080fd5b9392505050565b634e487b7160e01b600052603260045260246000fd5b634e487b7160e01b600052601160045260246000fd5b8082018082111561073957610739610710565b92915050565b600181811c9082168061075357607f821691505b6020821081036103f757634e487b7160e01b600052602260045260246000fd5b60018060a01b0383168152600060206040818401526000845481600182811c9150808316806107a357607f831692505b85831081036107c057634e487b7160e01b85526022600452602485fd5b60408801839052606088018180156107df57600181146107f557610820565b60ff198616825284151560051b82019650610820565b60008b81526020902060005b8681101561081a57815484820152908501908901610801565b83019750505b50949a9950505050505050505050565b634e487b7160e01b600052604160045260246000fd5b60006001820161085857610858610710565b506001019056fea26469706673582212208021e30aa93ea0a90da92ffdc042dcee4fb48571f033ac60e3a0388fbaded42864736f6c63430008150033",
  "immutableReferences": {},
  "source": "// SPDX-License-Identifier: MIT\r\npragma solidity ^0.8.0;\r\n\r\ncontract Voting {\r\n    // Candidate structure\r\n    struct Candidate {\r\n        string name;\r\n        uint voteCount;\r\n    }\r\n\r\n    // Store the candidates\r\n    Candidate[] public candidates;\r\n\r\n    // Track who has voted\r\n    mapping(address => bool) public voters;\r\n\r\n    // Address of the owner (who deployed the contract)\r\n    address public owner;\r\n\r\n    // Event to notify when a vote is cast\r\n    event VoteCasted(address voter, string candidate);\r\n\r\n    // Modifier to restrict some functions to the owner\r\n    modifier onlyOwner() {\r\n        require(msg.sender == owner, \"Only the owner can call this function\");\r\n        _;\r\n    }\r\n\r\n    constructor(string[] memory candidateNames) {\r\n    require(candidateNames.length > 0, \"Candidate names array is empty\");\r\n    owner = msg.sender;\r\n    for (uint i = 0; i < candidateNames.length; i++) {\r\n        candidates.push(Candidate({\r\n            name: candidateNames[i],\r\n            voteCount: 0\r\n        }));\r\n    }\r\n}\r\n\r\n\r\n    // Function to cast a vote for a candidate\r\n    function vote(uint candidateIndex) public {\r\n        require(!voters[msg.sender], \"You have already voted\");\r\n        require(candidateIndex < candidates.length, \"Invalid candidate index\");\r\n\r\n        // Mark the voter as having voted\r\n        voters[msg.sender] = true;\r\n\r\n        // Increase the vote count of the selected candidate\r\n        candidates[candidateIndex].voteCount += 1;\r\n\r\n        // Emit a voting event\r\n        emit VoteCasted(msg.sender, candidates[candidateIndex].name);\r\n    }\r\n\r\n    // Function to get the number of candidates\r\n    function getNumberOfCandidates() public view returns (uint) {\r\n        return candidates.length;\r\n    }\r\n\r\n    // Function to get candidate details by index\r\n    function getCandidate(uint index) public view returns (string memory name, uint voteCount) {\r\n        require(index < candidates.length, \"Invalid candidate index\");\r\n        return (candidates[index].name, candidates[index].voteCount);\r\n    }\r\n\r\n    // Function to get all candidate names (for the frontend)\r\n    function getAllCandidates() public view returns (string[] memory) {\r\n        string[] memory candidateNames = new string[](candidates.length);\r\n        for (uint i = 0; i < candidates.length; i++) {\r\n            candidateNames[i] = candidates[i].name;\r\n        }\r\n        return candidateNames;\r\n    }\r\n}\r\n",
  "sourcePath": "D:\\Projects\\BlockChain\\Digital-Voting\\contracts\\Voting.sol",
  "compiler": {
    "name": "solc",
    "version": "0.8.21+commit.d9974bed.Emscripten.clang"
  },
  "schemaVersion": "3.4.16",
  "updatedAt": "2024-10-10T20:40:47.567Z",
  "networkType": "ethereum",
  "devdoc": {
    "kind": "dev",
    "methods": {},
    "version": 1
  },
  "userdoc": {
    "kind": "user",
    "methods": {},
    "version": 1
  }
}