{
  "contractName": "Voting",
  "abi": [
    {
      "inputs": [],
      "stateMutability": "nonpayable",
      "type": "constructor"
    },
    {
      "inputs": [
        {
          "internalType": "uint256",
          "name": "",
          "type": "uint256"
        }
      ],
      "name": "candidates",
      "outputs": [
        {
          "internalType": "uint256",
          "name": "id",
          "type": "uint256"
        },
        {
          "internalType": "string",
          "name": "name",
          "type": "string"
        },
        {
          "internalType": "uint256",
          "name": "voteCount",
          "type": "uint256"
        }
      ],
      "stateMutability": "view",
      "type": "function",
      "constant": true
    },
    {
      "inputs": [],
      "name": "candidatesCount",
      "outputs": [
        {
          "internalType": "uint256",
          "name": "",
          "type": "uint256"
        }
      ],
      "stateMutability": "view",
      "type": "function",
      "constant": true
    },
    {
      "inputs": [
        {
          "internalType": "uint256",
          "name": "_candidateId",
          "type": "uint256"
        }
      ],
      "name": "vote",
      "outputs": [],
      "stateMutability": "nonpayable",
      "type": "function"
    }
  ],
  "bytecode": "0x608060405234801561001057600080fd5b50604080518082019091526005815264416c69636560d81b60208201526100369061005e565b6040805180820190915260038152622137b160e91b60208201526100599061005e565b61024b565b6001805490600061006e836100c6565b909155505060408051606081018252600180548083526020808401868152600085870181905292835290829052939020825181559251919291908201906100b5908261018c565b506040820151816002015590505050565b6000600182016100e657634e487b7160e01b600052601160045260246000fd5b5060010190565b634e487b7160e01b600052604160045260246000fd5b600181811c9082168061011757607f821691505b60208210810361013757634e487b7160e01b600052602260045260246000fd5b50919050565b601f82111561018757600081815260208120601f850160051c810160208610156101645750805b601f850160051c820191505b8181101561018357828155600101610170565b5050505b505050565b81516001600160401b038111156101a5576101a56100ed565b6101b9816101b38454610103565b8461013d565b602080601f8311600181146101ee57600084156101d65750858301515b600019600386901b1c1916600185901b178555610183565b600085815260208120601f198616915b8281101561021d578886015182559484019460019091019084016101fe565b508582101561023b5787850151600019600388901b60f8161c191681555b5050505050600190811b01905550565b6102cf8061025a6000396000f3fe608060405234801561001057600080fd5b50600436106100415760003560e01c80630121b93f146100465780632d35a8a21461005b5780633477ee2e14610077575b600080fd5b6100596100543660046101c2565b610099565b005b61006460015481565b6040519081526020015b60405180910390f35b61008a6100853660046101c2565b610117565b60405161006e939291906101db565b6000811180156100ab57506001548111155b6100f25760405162461bcd60e51b8152602060048201526014602482015273125b9d985b1a590818d85b991a59185d1948125160621b604482015260640160405180910390fd5b600081815260208190526040812060020180549161010f83610238565b919050555050565b600060208190529081526040902080546001820180549192916101399061025f565b80601f01602080910402602001604051908101604052809291908181526020018280546101659061025f565b80156101b25780601f10610187576101008083540402835291602001916101b2565b820191906000526020600020905b81548152906001019060200180831161019557829003601f168201915b5050505050908060020154905083565b6000602082840312156101d457600080fd5b5035919050565b83815260006020606081840152845180606085015260005b8181101561020f578681018301518582016080015282016101f3565b506000608082860101526080601f19601f83011685010192505050826040830152949350505050565b60006001820161025857634e487b7160e01b600052601160045260246000fd5b5060010190565b600181811c9082168061027357607f821691505b60208210810361029357634e487b7160e01b600052602260045260246000fd5b5091905056fea2646970667358221220240e11a09b687352045d3c023a7821c33fbf0c1add11846d70ed48dd2dad79c564736f6c63430008150033",
  "immutableReferences": {},
  "source": "// SPDX-License-Identifier: MIT\r\npragma solidity ^0.8.0;\r\n\r\ncontract Voting {\r\n    struct Candidate {\r\n        uint id;\r\n        string name;\r\n        uint voteCount;\r\n    }\r\n\r\n    mapping(uint => Candidate) public candidates;\r\n    uint public candidatesCount;\r\n\r\n    constructor() {\r\n        addCandidate(\"Alice\");\r\n        addCandidate(\"Bob\");\r\n    }\r\n\r\n    function addCandidate(string memory _name) private {\r\n        candidatesCount++;\r\n        candidates[candidatesCount] = Candidate(candidatesCount, _name, 0);\r\n    }\r\n\r\n    function vote(uint _candidateId) public {\r\n        require(_candidateId > 0 && _candidateId <= candidatesCount, \"Invalid candidate ID\");\r\n        candidates[_candidateId].voteCount++;\r\n    }\r\n}\r\n",
  "sourcePath": "D:\\Projects\\BlockChain\\Digital-Voting\\contracts\\Voting.sol",
  "compiler": {
    "name": "solc",
    "version": "0.8.21+commit.d9974bed.Emscripten.clang"
  },
  "schemaVersion": "3.4.16",
  "updatedAt": "2024-10-11T13:54:57.689Z",
  "networkType": "ethereum",
  "devdoc": {
    "kind": "dev",
    "methods": {},
    "version": 1
  },
  "userdoc": {
    "kind": "user",
    "methods": {},
    "version": 1
  }
}